:020000040800F2
:10000000000400200108000821070008510B000827
:10001000510B0008510B0008510B0008510B000850
:10002000510B0008510B0008510B0008510B000840
:10003000510B0008510B0008510B000891070008F4
:10004000510B0008510B0008510B0008510B000820
:10005000510B0008510B0008510B0008510B000810
:10006000510B0008C1090008F1090008410A000805
:10007000510B0008510B0008510B0008510B0008F0
:10008000510B0008510B0008510B0008510B0008E0
:10009000510B0008510B0008510B0008510B0008D0
:1000A000510B0008510B0008510B0008510B0008C0
:1000B000510B0008510B0008510B0008510B0008B0
:0C00C000B1010008F9010008D10000089F
:0400CC00D101000856
:1000D0000A4B8321002289005A50842189005A50FA
:1000E000972292009918B92292009950A822920062
:1000F0009918BA22920099507047C046C00C00204F
:1001000038B5234D281C00F02BFD00F0E1FB00F07A
:10011000EFF9204B8022596912030A435A611E4BA2
:100120001E4A19681E4C1140196018688021490147
:10013000014319605968402089B281439980596808
:10014000201C89B29980D9681140D960D968D960DA
:1001500099680A409A609968C02292010A43E12195
:100160009A60490200F044FE2A68201C0D4900F004
:100170007FFD0D4ABB239B000C48E25001F0B0F814
:10018000632000F04DFA201C00F0EAFDF8E7C046BD
:10019000B80C00200010024000080048FFCFFFFF0D
:1001A000C00C002076160008F1110008B00F0020E6
:1001B00008B5034B002B02D0024801F081F908BDBD
:1001C00000000000D1140008000000000000000042
:1001D00010B5064C2378002B07D1054B002B02D01D
:1001E000044800E000BF0123237010BD300C002044
:1001F000000000001818000808B5084B002B03D0B9
:100200000748084900E000BF07480368002B03D0F7
:10021000064B002B00D0984708BDC04600000000E8
:1002200018180008340C0020300C002000000000DA
:10023000002934D00123002210B488422CD3012499
:100240002407A14204D2814202D209011B01F8E72E
:10025000E400A14204D2814202D249005B00F8E7E7
:10026000884201D3401A1A434C08A04202D3001B13
:100270005C0822438C08A04202D3001B9C08224346
:10028000CC08A04202D3001BDC082243002803D084
:100290001B0901D00909E3E7101C10BC70470028B6
:1002A00001D00020C04307B4024802A140180290C8
:1002B00003BDC0461D0000000029F0D003B5FFF7C4
:1002C000B9FF0EBC4243891A1847C046000000001F
:1002D0007047C04600000000000000000000000061
:1002E00005490723054AC91899431160044A9A43EE
:1002F000044B1A607047C046B8100020500C002014
:10030000004000204C0C0020000000000000000015
:10031000034B00225B601B609A605B611B6170474E
:10032000DC0F0020000000000000000000000000C2
:10033000002303778268054B1B6899689142FBD2C2
:100340005A6803604260586010607047DC0F0020FC
:1003500008B572B6037F032B04D00D2B06D0002BFB
:1003600009D10DE0436A9A6801329A6002684368D5
:100370001A600268536001235B424362FFF7D8FFB3
:1003800062B608BD00000000000000000000000090
:1003900008B5074B14229969087718688A770268AC
:1003A00053601A6098610123037700F001FA08BDD9
:1003B000DC0F002000000000000000000000000032
:1003C00030B5051C87B00C4C4B1C0ED0A36901A89E
:1003D0000A4A00F05DF9281CFFF7DAFF049B002BA6
:1003E00005D001A800F074F901E0FFF7D1FFA3697F
:1003F000586A07B030BDC046DC0F0020510300082A
:1004000038B50B4D041C4162A869A26883689A4202
:1004100003D8201CFFF78CFF08E0FFF789FF0123BA
:10042000011C2377201CAC6100F0C2F938BDC04626
:10043000DC0F0020000000000000000000000000B1
:1004400038B5094C2368A5691A68281C54602260D5
:1004500001221A77A3611423AB77FFF769FF291CE8
:10046000A06900F0A5F938BDDC0F002000000000F5
:100470000C4B10B518689969026853601A60012224
:10048000027700220A778A6898611B689C68944208
:10049000FBD85A680B604A605960116000F088F917
:1004A00010BDC046DC0F002000000000000000006E
:1004B00008B5054B9B699B7F002B02D1FFF7C0FF5E
:1004C00001E0FFF7D5FF08BDDC0F002000000000B1
:1004D000024B034A9B699A61FEE7C046DC0F00208D
:1004E00000160008000000000000000000000000EE
:1004F00007B5134B134A0A20DA60002100F048FACE
:100500000B20802100F044FAFFF702FF00F0B0F862
:10051000FFF7E6FE40210C4800F04AF80B4B9861CB
:100520000123037762B6094B094A9B6909489A611E
:1005300000230093B0210122074B00F061F807BDB2
:1005400000ED00E00000FA05540C0020DC0F002054
:10055000E0150008F80F0020D1040008000000009A
:1005600010B5114B9B699A7F002A01D0013A9A7706
:100570001A6A0E4C01321A62E3680133E3602368A1
:10058000A34210D09A68013A9A6023689A68002AB8
:1005900009D1D968DA601A685460226062B61869B5
:1005A000884772B6F1E710BDDC0F0020A8100020CC
:1005B0000223037700234377436303628361074B7E
:1005C000142282775A690361816042615861031C79
:1005D00028331061C36283627047C046DC0F00207D
:1005E00010B50C1C243C0419C4602361029B111C2F
:1005F0006361024B2362FFF7DBFF10BDD1070008E8
:1006000013B572B6049C0094FFF7EAFF0021041CA6
:10061000FFF7F6FE62B6201C16BD000000000000C9
:1006200008B5011C72B60620FFF7CAFE62B608BD07
:1006300008B5074B9B695A7F5862910704D15A69E4
:10064000196911611B695A610E20FFF7A1FE08BDEF
:10065000DC0F00200000000000000000000000008F
:1006600008B572B6FFF7E4FF08BD00000000000007
:10067000044B012252429A6000225B601B60DA60E8
:100680007047C046A81000200000000000000000D5
:10069000C2600B4A0361136810B5141C9A688A4241
:1006A00002D2891A1B68F9E75A68036042605860F1
:1006B00010608160A34202D09A68511A996010BDFF
:1006C000A810002000000000000000000000000052
:1006D0000368074A10B5934203D0996884680A19E1
:1006E0009A604268136003685A600023C36010BDBB
:1006F000A810002000000000000000000000000022
:10070000FFF7D6FE8022024B12065A60FEE7C04673
:1007100000ED00E00000000000000000000000000C
:10072000EFF30983203383F3098862B67047000032
:100730000F3021D072B6EFF309831A1C203A82F3EE
:1007400009880E49802252048869203BDA61827F41
:100750008068002A05D00A6892689042924152420D
:1007600004E00968896881425241D2B2002A01D06E
:10077000034A00E0034A9A617047C046DC0F00203C
:100780000107000804070008000000000000000046
:1007900010B5744672B6FFF7E3FE62B6201CFFF791
:1007A000C7FF10BD000000000000000000000000B6
:1007B000F0B544464D4656465F46F0B46B46CB60B6
:1007C000C3689D46F0BCA046A946B246BB46F0BDF4
:1007D00062B6281CA047FFF743FF704700000000E7
:1007E0007047000000000000000000000000000052
:1007F000FEE7000000000000000000000000000014
:1008000072B6234B83F30988022383F31488BFF362
:100810006F8F204B1E4A2049181D043B8B4203D288
:100820001E491960031CF6E71D4B191D043B9A4233
:1008300003D91A4818600B1CF7E700F0F1F9002300
:10084000184A19499A188A4204D21849C9580433D7
:100850001160F5E7164B174A191D043B934203D26A
:1008600000221A600B1CF6E7FFF7BAFF124C134B7D
:100870009C4202D208CC9847F9E7FFF741FC104CA4
:10088000104B9C4202D208CC9847F9E7FFF7B0FF23
:100890000008002004000020000400205555555594
:1008A0000404002000080020300C00201818000864
:1008B000340C0020B8100020C0000008CC00000854
:1008C000CC000008D000000800000000000000007C
:1008D00008B500F005F808BD0000000000000000A9
:1008E00038B5104C0025236901235B422361256143
:1008F000E3680D4AFA211343E3600C4BE560186886
:100900008900FFF795FC0A4B0138072258609D606B
:100910001A60E26980235B051343E36100F0B8F8D5
:1009200038BDC04600100240FFFFBFFFB80C0020DA
:1009300010E000E0000000000000000000000000E7
:1009400082080F4B920070B5D2180324C0239B007D
:100950000440D558E400FF26A640B543A1402C1C16
:100960000C43D4501F23034001229A40131C40091A
:10097000034A80008018C02252008350036070BD7B
:1009800000E100E0000000000000000000000000A6
:100990008308084A10B59B0003249B182040A04000
:1009A0009A69FF248440A2438140101C0843986147
:1009B00010BDC04600ED00E0000000000000000097
:1009C00010B57446074B0F2219681140064A59604A
:1009D0001368002B01D050689847201CFFF7A8FE31
:1009E00010BDC046000002408C0C0020000000003A
:1009F00038B575460E4C21680906090F07D00D4A17
:100A00000B0163609368002B01D0D0689847216880
:100A10000905090F08D0064A0B025360054A1369FD
:100A2000002B01D050699847281CFFF781FE38BD84
:100A3000000002408C0C00200000000000000000BC
:100A400038B575460E4C21680904090F07D00D4AC8
:100A50000B0363609369002B01D0D069984721682C
:100A60000903090F08D0064A0B045360054A136AAC
:100A7000002B01D0506A9847281CFFF759FE38BD5B
:100A8000000002408C0C002000000000000000006C
:100A90000B4A002313600B4A0B4913600B4A136087
:100AA0000B600B4993600B600A4913610B600A49A4
:100AB00093610B601362094B012252425A607047E6
:100AC000B40C0020080002401C0002408C0C0020E6
:100AD0003000024044000240580002400000024042
:100AE000F7B5184D01919C460121437A0F1C2E68E1
:100AF0009F40041C081C3E4222D11348DB001A50C0
:100B00003E43C318604658602E60730603D00F4BF7
:100B100058690143596123680F2118688843186098
:100B2000257A6068A940002501601D60AA4206D0B0
:100B3000019BA07A9901FFF703FF281C00E0101C1D
:100B4000FEBDC046B40C00208C0C002000100240FA
:100B5000FEE70000000000000000000000000000B0
:100B6000F0B5284C87B06368061C1B079B0F022B4F
:100B700003D0032B29D0244D28E0E16A65680F23B8
:100B8000AD022D0F194002350131112D00D1102574
:100B90006368C022520280201340000283420BD0BF
:100BA00002D8002B0ED005E080204002834203D003
:100BB000934203D0144806E0134800E01348FFF7BF
:100BC00037FB00E01248454300E0104D02AF381CEF
:100BD0001049102200F0BCFB63680E491B061B0F76
:100BE000FB5C1031DD4035606846082200F0B0FB48
:100BF00063686A465B055B0FD35CDD40756007B0D8
:100C0000F0BDC0460010024000127A00006CDC0209
:100C100000093D00C01500080000000000000000B1
:100C2000064B01211A680A431A601968034A8807AB
:100C3000FBD5936901210B4393617047001002407B
:100C4000FE235B00C25810B5541CC4501170FC2127
:100C500049004218C158914200D3C05010BD000055
:100C600008B5011C0148FFF7EBFF08BDC00C0020D0
:100C70000EB4FE23FC225B00520033B5C3588158EA
:100C8000041C8B4201D3F931FF31C91A059A06AB16
:100C90001548019300F0FCF981239B00E25880186D
:100CA000E05080239B00E25C002A18D00022E2542E
:100CB0000E4BFC225200FC25A258DB686D00611926
:100CC000DA608A1A904200D9101C82229200A05049
:100CD000922258601A601A6801210A431A6033BCD4
:100CE00008BC03B01847C046610C00081016000885
:100CF00070B5B9239B00C258041C926B002A2CD0FB
:100D000072B6C558AB6B352B03D80022EA540133B9
:100D1000F9E7124E281C311C00F08AFB311CE863F5
:100D2000002000F085FBB92328649B00E258BA211B
:100D30009720890080006250191C23189A4202D122
:100D4000A8229200A318002263509A6362B6BB23C4
:100D50009B00E358002B00D0984770BD5016000848
:100D6000F8B5214B48229B69041C5B68D31A832287
:100D700092008558AB4235D05D1B00D54835A35055
:100D80000026AE422EDA8427BF00E3595A1CE251F6
:100D90008427E318BF00DB191B79082B08D1B9237E
:100DA0009B00E3589A6B002A13D0013A9A6310E033
:100DB0000D2B01D00A2B03D1201CFFF799FF08E06F
:100DC000B9229200A1588A6B342A02D8501C886339
:100DD0008B54E359472B03DD842300229B00E25010
:100DE0000136CEE7F8BDC04610160008000000002E
:100DF000F8B5FE23071C5B00F850FC235B00F8509D
:100E000080239B000122C25481234E4E9B0000226E
:100E1000C25073698022920213439024E4057361E7
:100E20002268494B494D1A402260206880221203F3
:100E3000024322606068464A0240A280626892B221
:100E4000A280E2681A40E260E268E260A2681340B1
:100E5000A360A268C0231B031343A360636AF0224C
:100E600093436362636A102213436362B26980230F
:100E7000DB011343B36101232B60364B5868FFF746
:100E8000D7F9002180B2A881334A69600023072185
:100E90003248FFF725FE324A8021D368314A890261
:100EA0009A6092221A600C232B60C023AB60736996
:100EB0002A480B43736122682B4B0C301A40226086
:100EC0002168802292030A4322606168274A0A400F
:100ED000A2806168802289B2D2000A43A280E268BF
:100EE0001A40E260E168802252030A43E260A2688D
:100EF0000F211340A360A268C0239B031343A36088
:100F0000626A1B4B13406362626A80235B00134377
:100F100000226362131CFFF7E3FD114A85219369E8
:100F2000144A89009A607A18DA6048225A60A0222E
:100F30001A601A6801210A431A602B680B432B6060
:100F4000F8BDC04600100240FFFFF3FF003801402B
:100F5000FFFD0000B80C0020F10F00081C1600086F
:100F60001016000828380140FFFFCFFFFFFB0000EC
:100F7000FFF0FFFF243801400000000000000000E7
:100F80001A4AF0B5D3680F211C6882268C431C6076
:100F90001469127DB600914021608124A400055996
:100FA0008259A91A0151FC2464000759FC246400E9
:100FB000BA180519AA4201D2025100E000510029D5
:100FC00004D1802301229B00C2540DE00259DA6053
:100FD000AA1A8A4200D90A1C82515A6092221A60C7
:100FE0001A6801210A431A60F0BDC04610160008B5
:100FF00008B50248FFF7C4FF08BDC046C00C00207A
:10100000F0B587B0061C019164460025301C01999B
:10101000FFF752F9301C0F1C0199FFF709F9013550
:10102000061C092F01D8303700E03737FBB203AF79
:101030007A19013A1370002EE8D12E1C22689542CD
:101040000ED2227CE3683020002A00D1202098476D
:10105000A36861680133A3608B4211D20135EDE7CB
:10106000A3686168351CCA1A964200D9151CEB1892
:10107000A360002D04D0013D785DE2689047F8E759
:1010800007B0F0BD000000000000000000000000FC
:10109000F0B589B01D1C049103AB002106900591A9
:1010A000039119741078561C00280AD025280BD0FB
:1010B00006998847059B049A01330593934200D211
:1010C00093E0059809B0F0BD00220392111C01368F
:1010D000731E1B78181C3038C4B2092C08D8002A9B
:1010E00002D1302B00D101210A235A438218EEE7A6
:1010F00003926A4611772022191C914353290FD17C
:101100002C1D2D682B78002B69D0059B04995A1C47
:1011100005928B4263D22878069A90470135F1E711
:10112000632B0AD1069A28789047059B049A0133CD
:101130002C1D0593934252D3C3E7582B05D103AB23
:101140002C1D28689C46102106E0752B07D103A9A9
:1011500028682C1D8C460A21FFF752FF3FE0642BC4
:1011600011D12C1D2D68002D09DA2D20069A9047EB
:10117000059B0499013305938B42A2D26D4203AAC9
:101180009446281CE7E72C1C412B28D12B68696862
:1011900000936A46012313770223AF6801910C3450
:1011A00003930025019B9D4219DA002D0CDC009B66
:1011B00003A9585D8C461021FFF722FF059A049B76
:1011C0009A420CD20135EDE7002FF0D0069AF8B222
:1011D0009047059B049A013305939342E7D3059A00
:1011E000049B9A4200D36CE7251C321C5AE700008E
:1011F00038B50F4CBA25AD006359201CDA6B0D4988
:10120000FFF736FD63590C49DC6B201C00F0E8F851
:10121000002803D1094B40229A6108E0201C0849AC
:1012200000F0DEF8002802D1044B40221A8538BDB8
:10123000C00C0020601600086D1600080008004869
:10124000711600080000000000000000000000000F
:1012500010B50C1C131C03480349221CFFF708FDA2
:10126000002010BDC00C0020B016000800000000D7
:1012700008B55E210522FFF7EBFF08BD0000000066
:1012800008B5082916D006D8022920D004290FD085
:10129000012915D119E020290ED003D804221029E4
:1012A00016D00DE0402909D00722802910D007E090
:1012B00002220DE003220BE0052209E0062207E0EE
:1012C00005480649FFF7D4FC05E0002200E00122B2
:1012D0005D21FFF7BDFF08BDC00C0020BC16000853
:1012E00038B5051C2B24221C0134342C06D0134B9A
:1012F0001348E35C1349FFF7BBFCF4E74124221CCD
:1013000001344C2C06D0104B0D48E35C0D49FFF71F
:10131000AFFCF4E7281C1021FFF7B2FF7B24221C4E
:101320000134812C06D0094B0548E35C0549FFF7E1
:101330009FFCF4E7281CFFF79BFF38BD90160008C0
:10134000C00C0020D0160008E0160008A016000807
:10135000F0B50F2A35D9031C0B439C0735D1161C59
:10136000103E36093501451910350C1C031C276841
:101370001F6067685F60A7689F60E7681034DF6080
:101380001033AB42F3D1731C1B01C518C9180F23CE
:101390001340032B1BD91C1FA4080134A4000023F5
:1013A000CE58EE500433A342FAD1ED18C9180323E6
:1013B0001A4005D00023CC5CEC5401339342FAD19F
:1013C000F0BD051C002AF5D1FAE7051CF2E71A1C4E
:1013D000F8E7C04600000000000000000000000028
:1013E000114BF0B51E68032500230AE0CA5CB7184C
:1013F0007F782F40012F12D0A41A13D10133002A75
:1014000010D0C25CB4186778141C2F40012FEDD1A6
:10141000CA5C2034B7187F782F40012FECD12032DE
:10142000A41AEBD0201CF0BD2C0C00200000000002
:1014300008B5034B1A6801235C3200F009F808BDB7
:10144000280C002000000000000000000000000048
:10145000F0B5002823D0471C06780C1C02E00134AC
:10146000AE4214D02578002DF9D1002E1CD07E1C60
:101470003D780B1C02E00133002C0CD01C78AC42F0
:10148000F9D1002D09D000233B701660F0BD002B70
:101490000DD0381CDFE7371CE9E70026F5E71068B8
:1014A0000028D8D10020F1E716600020EEE7176091
:1014B0000370EBE7000000000000000000000000E7
:1014C00008B5011C00220020002300F019F808BD17
:1014D00038B5094B094DED1AAD1009D0013DAC00EE
:1014E000E41800E0013D23689847043C002DF9D141
:1014F00000F090F938BDC046CC000008D0000008CC
:10150000F0B54F464646C0B498462B4BA4251B6801
:101510006D005C5983B0061C0F1C91460193002C92
:1015200044D065681F2D1ADD244B002B02D1012009
:1015300040421CE0C820400000E000BF041EF6D07E
:1015400000254560A42301985B00C05801992060E4
:10155000CC50C4235B00E550C6235B00E550002E51
:101560000AD16B1C0235AD00636000202F5103B01F
:101570000CBC90469946F0BDAB00E3188822484663
:101580009850C4204000221810680121A940084347
:1015900010608422520040469850022EE1D1C622AB
:1015A0005200A318186801431960DAE71C1C4D3477
:1015B000FF345C51B5E7C04600170008000000008A
:1015C00000000000000000000102030406070809F3
:1015D0000000000001020304000000000000000001
:1015E0006D61696E00168311040438080C1014181C
:1015F000001C1D001E200000000000000000000074
:1016000069646C650000000000000000000000003C
:101610000800024004000240000009001C000240D3
:101620000400024004010A003000024004000240AD
:1016300008020A0044000240040002400C030B00B0
:10164000580002400400024010040B00000000009B
:10165000202C00000000000000000000000000003E
:10166000436D644E616D653A2025530D00234F6E26
:1016700000234F6666000D546F7263683420414842
:10168000423D257500000000000000000000000041
:101690002B010100000101FF02000000000000001A
:1016A0007B0B00C983B500000000000000000000B3
:1016B0000D6D707257202575202575000D4D7072C7
:1016C0002057726F6E6720496E74657276616C0088
:1016D0000D577320257520257500000000000000BF
:1016E000410F0A0F0A0F0A0F0A0F0A00000000003C
:1016F00043000000000000000000000000000000A7
:1017000000080020000000000000000000000000B1
:1017100000202020202020202020282828282820C1
:1017200020202020202020202020202020202020B9
:101730002088101010101010101010101010101021
:101740001004040404040404040404101010101011
:1017500010104141414141410101010101010101DB
:10176000010101010101010101010101101010102D
:1017700010104242424242420202020202020202AD
:101780000202020202020202020202021010101001
:101790002000000000000000000000000000000029
:1017A0000000000000000000000000000000000039
:1017B0000000000000000000000000000000000029
:1017C0000000000000000000000000000000000019
:1017D0000000000000000000000000000000000009
:1017E00000000000000000000000000000000000F9
:1017F00000000000000000000000000000000000E9
:1018000000000000000000000000000000000000D8
:0418100000000000D4
:04181400F8B5C0461D
:1018180000000000EC0A0020540B0020BC0B002044
:1018280000000000000000000000000000000000B0
:1018380000000000000000000000000000000000A0
:1018480000000000F0160008000000000000000082
:101858000000000000000000000000000000000080
:101868000000000000000000000000000000000070
:101878000000000000000000000000000000000060
:101888000000000000000000000000000000000050
:101898000000000000000000000000000000000040
:1018A8000000000000000000000000000000000030
:1018B800000000000000000001000000000000001F
:1018C8000E33CDAB34126DE6ECDE05000B000000E4
:1018D8000000000000000000000000000000000000
:1018E80000000000000000000000000000000000F0
:1018F80000000000000000000000000000000000E0
:1019080000000000000000000000000000000000CF
:101C38000000000000000000000800201017000845
:0400000508000801E6
:00000001FF
