:020000040800F2
:10000000000400201109000831080008610C0008F4
:10001000610C0008610C0008610C0008610C00080C
:10002000610C0008610C0008610C0008610C0008FC
:10003000610C0008610C0008610C0008A1080008B0
:10004000610C0008610C0008610C0008610C0008DC
:10005000610C0008610C0008610C0008610C0008CC
:10006000610C0008D10A0008010B0008510B0008C0
:10007000610C0008610C0008610C0008610C0008AC
:10008000610C0008610C0008610C0008610C00089C
:10009000610C0008610C0008610C0008610C00088C
:1000A000610C0008610C0008610C0008610C00087C
:1000B000610C0008610C0008610C0008610C00086C
:1000C000A1020008E9020008E1000008510200084E
:0400D000C102000861
:1000E0000B4B01211A1CD43213601A1CD03213603E
:1000F0001A1CD8321170191C0022DC310A60191C3C
:10010000E0310A60E122E43352021A607047C046CF
:10011000B80C0020000000000000000000000000FB
:10012000F0B5404C85B000220921201C00F0E8FD0C
:10013000201C00F09DFD00F053FC00F061FA3A4DE8
:10014000E121281C490201F0C3F82268281C374924
:1001500001F09EF8364B80225969D2020A435A6157
:10016000344B0C221968344C91431960D968251C12
:100170009143D960DA682035DA60281C00F048FE27
:10018000216B0026CBB26421A28D009101960296CC
:10019000281CA16A00F094FE236A01211A68281C19
:1001A00092B20A431A80992100F00AFF281C311CE0
:1001B00001F07EF972B62048204B8361C361036869
:1001C0009B68984762B61B4F1B4C012600253B6974
:1001D0009A0721D5002D1FD1002E0AD072B6184BD8
:1001E000201CA361E36123689B68984762B60026E0
:1001F00009E072B6114B201CA361E36123689B6880
:10020000984762B6012608480E4901F041F80125D9
:10021000632000F08DFADAE73B699B07DB171D408E
:10022000F6E7C046B00C0020B80C0020B01700085C
:100230000010024000040048A00D0020D017000864
:10024000E0170008BF1700080000000000000000D1
:1002500070B50E4A0E4B86B013608023DB05019308
:100260009023DB050393012104AB198002230020B6
:100270000593131C9061D06101A9203370C970C32C
:1002800030C930C33432107006B070BDA00D0020EC
:1002900098170008000000000000000000000000A7
:1002A00008B5034B002B02D0024801F0A9F908BDA4
:1002B000000000001116000800000000000000000F
:1002C00010B5064C2378002B07D1054B002B02D02C
:1002D000044800E000BF0123237010BD280C00205B
:1002E000000000000818000808B5084B002B03D0D8
:1002F0000748084900E000BF07480368002B03D007
:10030000064B002B00D0984708BDC04600000000F7
:10031000081800082C0C0020280C00200000000009
:1003200002B4714649084900095C49008E4402BC88
:100330007047C04600000000000000000000000000
:10034000002934D00123002210B488422CD3012488
:100350002407A14204D2814202D209011B01F8E71D
:10036000E400A14204D2814202D249005B00F8E7D6
:10037000884201D3401A1A434C08A04202D3001B02
:100380005C0822438C08A04202D3001B9C08224335
:10039000CC08A04202D3001BDC082243002803D073
:1003A0001B0901D00909E3E7101C10BC70470028A5
:1003B00001D00020C04307B4024802A140180290B7
:1003C00003BDC0461D0000000029F0D003B5FFF7B3
:1003D000B9FF0EBC4243891A1847C046000000000E
:1003E0007047C04600000000000000000000000050
:1003F00005490723054AC91899431160044A9A43DD
:10040000044B1A607047C046B80E0020480C00200C
:1004100000200020440C002000000000000000002C
:10042000034B00225B601B609A605B611B6170473D
:10043000D80D0020000000000000000000000000B7
:10044000002303778268054B1B6899689142FBD2B1
:100450005A6803604260586010607047D80D0020F1
:1004600008B572B6037F032B04D00D2B06D0002BEA
:1004700009D10DE0436A9A6801329A6002684368C4
:100480001A600268536001235B424362FFF7D8FFA2
:1004900062B608BD0000000000000000000000007F
:1004A00008B5074B14229969087718688A7702689B
:1004B00053601A6098610123037700F001FA08BDC8
:1004C000D80D002000000000000000000000000027
:1004D00030B5051C87B00C4C4B1C0ED0A36901A88D
:1004E0000A4A00F05DF9281CFFF7DAFF049B002B95
:1004F00005D001A800F074F901E0FFF7D1FFA3696E
:10050000586A07B030BDC046D80D0020610400080D
:1005100038B50B4D041C4162A869A26883689A42F1
:1005200003D8201CFFF78CFF08E0FFF789FF0123A9
:10053000011C2377201CAC6100F0C2F938BDC04615
:10054000D80D0020000000000000000000000000A6
:1005500038B5094C2368A5691A68281C54602260C4
:1005600001221A77A3611423AB77FFF769FF291CD7
:10057000A06900F0A5F938BDD80D002000000000EA
:100580000C4B10B518689969026853601A60012213
:10059000027700220A778A6898611B689C689442F7
:1005A000FBD85A680B604A605960116000F088F906
:1005B00010BDC046D80D0020000000000000000063
:1005C00008B5054B9B699B7F002B02D1FFF7C0FF4D
:1005D00001E0FFF7D5FF08BDD80D002000000000A6
:1005E000024B034A9B699A61FEE7C046D80D002082
:1005F000401700080000000000000000000000009C
:1006000007B5134B134A0A20DA60002100F048FABC
:100610000B20802100F044FAFFF702FF00F0B0F851
:10062000FFF7E6FE40210C4800F04AF80B4B9861BA
:100630000123037762B6094B094A9B6909489A610D
:1006400000230093B0210122074B00F061F807BDA1
:1006500000ED00E00000FA054C0C0020D80D002051
:1006600020170008F80D0020E10500080000000038
:1006700010B5114B9B699A7F002A01D0013A9A77F5
:100680001A6A0E4C01321A62E3680133E360236890
:10069000A34210D09A68013A9A6023689A68002AA7
:1006A00009D1D968DA601A685460226062B61869A4
:1006B000884772B6F1E710BDD80D0020A80E0020C3
:1006C0000223037700234377436303628361074B6D
:1006D000142282775A690361816042615861031C68
:1006E00028331061C36283627047C046D80D002072
:1006F00010B50C1C243C0419C4602361029B111C1E
:100700006361024B2362FFF7DBFF10BDE1080008C5
:1007100013B572B6049C0094FFF7EAFF0021041C95
:10072000FFF7F6FE62B6201C16BD000000000000B8
:1007300008B5011C72B60620FFF7CAFE62B608BDF6
:1007400008B5074B9B695A7F5862910704D15A69D3
:10075000196911611B695A610E20FFF7A1FE08BDDE
:10076000D80D002000000000000000000000000084
:1007700008B572B6FFF7E4FF08BD000000000000F6
:10078000044B012252429A6000225B601B60DA60D7
:100790007047C046A80E00200000000000000000C6
:1007A000C2600B4A0361136810B5141C9A688A4230
:1007B00002D2891A1B68F9E75A68036042605860E0
:1007C00010608160A34202D09A68511A996010BDEE
:1007D000A80E002000000000000000000000000043
:1007E0000368074A10B5934203D0996884680A19D0
:1007F0009A604268136003685A600023C36010BDAA
:10080000A80E002000000000000000000000000012
:10081000FFF7D6FE8022024B12065A60FEE7C04662
:1008200000ED00E0000000000000000000000000FB
:10083000EFF30983203383F3098862B67047000021
:100840000F3021D072B6EFF309831A1C203A82F3DD
:1008500009880E49802252048869203BDA61827F30
:100860008068002A05D00A689268904292415242FC
:1008700004E00968896881425241D2B2002A01D05D
:10088000034A00E0034A9A617047C046D80D002031
:100890001108000814080008000000000000000013
:1008A00010B5744672B6FFF7E3FE62B6201CFFF780
:1008B000C7FF10BD000000000000000000000000A5
:1008C000F0B544464D4656465F46F0B46B46CB60A5
:1008D000C3689D46F0BCA046A946B246BB46F0BDE3
:1008E00062B6281CA047FFF743FF704700000000D6
:1008F0007047000000000000000000000000000041
:10090000FEE7000000000000000000000000000002
:1009100072B6234B83F30988022383F31488BFF351
:100920006F8F204B1E4A2049181D043B8B4203D277
:100930001E491960031CF6E71D4B191D043B9A4222
:1009400003D91A4818600B1CF7E700F0E9F90023F7
:10095000184A19499A188A4204D21849C9580433C6
:100960001160F5E7164B174A191D043B934203D259
:1009700000221A600B1CF6E7FFF7BAFF124C134B6C
:100980009C4202D208CC9847F9E7FFF7C9FB104C0C
:10099000104B9C4202D208CC9847F9E7FFF7B0FF12
:1009A0000008002004000020000400205555555583
:1009B0000404002000080020280C0020081800086B
:1009C0002C0C0020B80E0020C0000008D000000849
:1009D000D0000008D4000008000000000000000063
:1009E00008B500F005F808BD000000000000000098
:1009F00038B5104C0025236901235B422361256132
:100A0000E3680D4AFA211343E3600C4BE560186874
:100A10008900FFF795FC0A4B0138072258609D605A
:100A20001A60E26980235B051343E36100F0B8F8C4
:100A300038BDC04600100240FFFFBFFFB00C0020D1
:100A400010E000E0000000000000000000000000D6
:100A500082080F4B920070B5D2180324C0239B006C
:100A60000440D558E400FF26A640B543A1402C1C05
:100A70000C43D4501F23034001229A40131C400909
:100A8000034A80008018C02252008350036070BD6A
:100A900000E100E000000000000000000000000095
:100AA0008308084A10B59B0003249B182040A040EF
:100AB0009A69FF248440A2438140101C0843986136
:100AC00010BDC04600ED00E0000000000000000086
:100AD00010B57446074B0F2219681140064A596039
:100AE0001368002B01D050689847201CFFF7A8FE20
:100AF00010BDC04600000240840C00200000000031
:100B000038B575460E4C21680906090F07D00D4A05
:100B10000B0163609368002B01D0D068984721686F
:100B20000905090F08D0064A0B025360054A1369EC
:100B3000002B01D050699847281CFFF781FE38BD73
:100B400000000240840C00200000000000000000B3
:100B500038B575460E4C21680904090F07D00D4AB7
:100B60000B0363609369002B01D0D069984721681B
:100B70000903090F08D0064A0B045360054A136A9B
:100B8000002B01D0506A9847281CFFF759FE38BD4A
:100B900000000240840C0020000000000000000063
:100BA0000B4A002313600B4A0B4913600B4A136076
:100BB0000B600B4993600B600A4913610B600A4993
:100BC00093610B601362094B012252425A607047D5
:100BD000AC0C0020080002401C000240840C0020E5
:100BE0003000024044000240580002400000024031
:100BF000F7B5184D01919C460121437A0F1C2E68D0
:100C00009F40041C081C3E4222D11348DB001A50AE
:100C10003E43C318604658602E60730603D00F4BE6
:100C200058690143596123680F2118688843186087
:100C3000257A6068A940002501601D60AA4206D09F
:100C4000019BA07A9901FFF703FF281C00E0101C0C
:100C5000FEBDC046AC0C0020840C002000100240F9
:100C6000FEE700000000000000000000000000009F
:100C7000F0B51C4C0C23626887B0051C1340082B90
:100C800014D1E16A6668B602360F0236112E00D121
:100C900010266368DA0306D50F2319400131124884
:100CA000FFF74EFB00E01148464300E00E4E02AF56
:100CB000381C0F49102200F05BFC63680C491B06CE
:100CC0001B0FFB5C1031DE402E606846082200F0EE
:100CD0004FFC63686A465B055B0FD35CDE406E6069
:100CE00007B0F0BD0010024000127A0000093D007C
:100CF00000170008000000000000000000000000D5
:100D0000054B10B505485C681202204002430801FB
:100D1000111C0143596010BD001002400FF8FFFF85
:100D2000064B01211A680A431A601968034A8807AA
:100D3000FBD5936901210B4393617047001002407A
:100D4000F0B59024E405A04204D12B4C80256669BF
:100D5000AD0216E0294CA04204D1274C80256669DB
:100D6000ED020EE0264CA04204D1234C802566699A
:100D70002D0306E0234CA04205D11F4C8025666957
:100D80006D03354365614D0003240668AC40E443C0
:100D90002640066006680227AF403E43066046686C
:100DA0003D1C0127B6B28F40BE43868046688A400C
:100DB000324392B28280C2682240C260C268C2607E
:100DC0008268144084608268154307228A429241F7
:100DD00085605242072900D9083992008018026ABA
:100DE00089000F248C40A2430262026A8B40191CC6
:100DF00011430162F0BDC0460010024000040048EB
:100E000000080048000C004800000000000000003E
:100E10000368224A934204D1214B8022996912012E
:100E200036E08022D205934203D11D4B0121DA69BD
:100E300005E01C4A934205D1194B0221DA690A43A5
:100E4000DA6127E0184A934203D1154B1021DA6981
:100E5000F5E7164A934204D1114B8022D96952001A
:100E6000EDE7134A934204D10D4B80229969520257
:100E70000EE0104A934204D1094B802299699202F4
:100E800006E00D4A934205D1054B80229969D202B2
:100E90000A439A61094B43607047C046002C0140E9
:100EA00000100240000400400010004000200040FC
:100EB000004001400044014000480140B40C0020C3
:100EC000F8B51C1C06AB061C081C111C04CB364FC5
:100ED0001D7808AB1A783368BB4201D1022325E0A4
:100EE0008027FF05BB42F9D0304FBB4201D101231F
:100EF0001CE02F4FBB4205D19023DB05984208D15F
:100F0000042313E02B4FBB4205D19023DB0598420D
:100F1000EDD100230AE0284FBB4202D0274FBB424D
:100F200006D19023DB059842D8D10523FFF708FFAF
:100F3000069B3268013DD362601E6B1E9D410723F4
:100F40005D1B03282ED8FFF7EBF9020C16219369DD
:100F50002D019BB21D43ADB21583136A01219BB2D3
:100F60001EE093692D039BB21D43ADB21583136A36
:100F700010219BB214E0D3692D019BB21D43ADB289
:100F80009583116A802389B25B0009E0D3692D0340
:100F90009BB21D43ADB29583116A802389B25B0178
:100FA0000B431384F8BDC046002C014000040040F0
:100FB0000020004000400140004401400048014042
:100FC00038B5046843680D1CE16A18680131FFF701
:100FD000B7F9291CFFF7B4F9031C5A1E9341C01A34
:100FE00080B2208538BD0000000000000000000035
:100FF000F0B587B0061C019164460025301C0199AC
:10100000FFF7E2F9301C0F1C0199FFF799F9013540
:10101000061C092F01D8303700E03737FBB203AF89
:101020007A19013A1370002EE8D12E1C22689542DD
:101030000ED2227CE3683020002A00D1202098477D
:10104000A36861680133A3608B4211D20135EDE7DB
:10105000A3686168351CCA1A964200D9151CEB18A2
:10106000A360002D04D0013D785DE2689047F8E769
:1010700007B0F0BD0000000000000000000000000C
:10108000F0B589B01D1C049103AB002106900591B9
:10109000039119741078561C00280AD025280BD00B
:1010A00006998847059B049A01330593934200D221
:1010B00093E0059809B0F0BD00220392111C01369F
:1010C000731E1B78181C3038C4B2092C08D8002AAB
:1010D00002D1302B00D101210A235A438218EEE7B6
:1010E00003926A4611772022191C914353290FD18C
:1010F0002C1D2D682B78002B69D0059B04995A1C58
:1011000005928B4263D22878069A90470135F1E721
:10111000632B0AD1069A28789047059B049A0133DD
:101120002C1D0593934252D3C3E7582B05D103AB33
:101130002C1D28689C46102106E0752B07D103A9B9
:1011400028682C1D8C460A21FFF752FF3FE0642BD4
:1011500011D12C1D2D68002D09DA2D20069A9047FB
:10116000059B0499013305938B42A2D26D4203AAD9
:101170009446281CE7E72C1C412B28D12B68696872
:1011800000936A46012313770223AF6801910C3460
:1011900003930025019B9D4219DA002D0CDC009B76
:1011A00003A9585D8C461021FFF722FF059A049B86
:1011B0009A420CD20135EDE7002FF0D0069AF8B232
:1011C0009047059B049A013305939342E7D3059A10
:1011D000049B9A4200D36CE7251C321C5AE700009E
:1011E000031CD4331A6810B5541C1C6011701968A4
:1011F000021CCF32914200D3186010BD00000000E5
:1012000008B5011C0148FFF7EBFF08BDB80C002032
:10121000031CD03319680C33021C1B68CF32521ADE
:101220009A4200D91A1C031CE0331A60002A0CD021
:101230000023D8300370054BDB68D9605A609222D6
:101240001A601A6801210A431A6070475017000893
:1012500070B5051CDC35131C2A680E1CCF21041C3C
:10126000891A0848321CFFF70BFF2B68C018231C93
:101270002860D8331B78002B02D0201CFFF7C8FF52
:1012800070BDC04601120008000000000000000010
:101290000EB403B503AA08CA72B603990192FFF708
:1012A000D7FF62B602B008BC03B0184700000000C8
:1012B00008B5054A031CE43350681968FFF740F885
:1012C000024B80B2988108BDB00C0020003801406C
:1012D000264AF8B5546980239B0223435361902327
:1012E000DB051D68224C25401D601E6880252D03EE
:1012F0002E431E605F681F4E3E409E805E68B6B201
:101300009E80DE682640DE60DE68DE609E683440D7
:101310009C609C6825439D605C6AF025AC435C62E0
:101320005C6A10252C435C62031CE43319609169EC
:101330008023DB010B439361FFF7BAFF0E4C0F4D87
:1013400000236360281C07210D4AFFF751FC2B681E
:101350000C4A9A6092221A60082323608023A360BB
:101360002368012213432360F8BDC04600100240E9
:10137000FFFFF3FFFFFD0000003801405C1700088D
:10138000E1130008283801400000000000000000C0
:10139000124B10B5D9680F220C6894430C60196980
:1013A0001B7D9A40031C0A60E0331968043B1C68EB
:1013B0000C3B621ADA601C686118041CCF34A1422D
:1013C00001D2196000E01860002A03D1D83001234F
:1013D000037001E0FFF71CFF10BDC0465017000866
:1013E00008B50248FFF7D4FF08BDC046B80C00207E
:1013F00008B572B603689B68984762B608BD0000DE
:1014000038B5FA239B00051D041C181C4843191C01
:101410000138FEF795FF034A411C231C281CFFF7E7
:10142000BFF938BDF1130008000000000000000003
:10143000026910B5041C002A02D00430FFF7D0F96D
:10144000E36918780328FDD8FEF76AFF0209182B14
:101450002368201C1B6898470128F1D121E0997866
:101460005A7809021143DA78120411431A790633C3
:1014700012061143E361E3D0201C10E09A785978FA
:1014800012020A43D9781B7909040A431B06134345
:1014900006225343A269201CD318E3610121FFF700
:1014A000AFFF10BD000000000000000000000000C1
:1014B00010B50269034C131902689B00D3185963D5
:1014C00010BDC046FFFFFF3F00000000000000000D
:1014D00008B520300021FFF7EBFF08BD0000000039
:1014E00070B5C369051C34352A785979041C8A42C1
:1014F00036D09E78587836020643D8781B79000497
:1015000006431B06201C1E432030002E05D1FFF78A
:10151000CFFFE3695A792A7022E08A4201D2013270
:1015200002E08A4201D9013A2A702978FFF7C0FF08
:10153000E36929785A798A4212D098785A78000259
:101540001043DA781B79120410431B061843043148
:10155000FEF7F6FE411C201CFFF752FF012002E0BF
:101560000633E361002070BD0000000000000000B1
:10157000F0B50F2A35D9031C0B439C0735D1161C37
:10158000103E36093501451910350C1C031C27681F
:101590001F6067685F60A7689F60E7681034DF605E
:1015A0001033AB42F3D1731C1B01C518C9180F23AC
:1015B0001340032B1BD91C1FA4080134A4000023D3
:1015C000CE58EE500433A342FAD1ED18C9180323C4
:1015D0001A4005D00023CC5CEC5401339342FAD17D
:1015E000F0BD051C002AF5D1FAE7051CF2E71A1C2C
:1015F000F8E7C04600000000000000000000000006
:1016000008B5011C00220020002300F019F808BDD5
:1016100038B5094B094DED1AAD1009D0013DAC00AC
:10162000E41800E0013D23689847043C002DF9D1FF
:1016300000F0E8F838BDC046D0000008D40000082B
:10164000F0B54F464646C0B498462B4BA4251B68C0
:101650006D005C5983B0061C0F1C91460193002C51
:1016600044D065681F2D1ADD244B002B02D10120C8
:1016700040421CE0C820400000E000BF041EF6D03D
:1016800000254560A42301985B00C05801992060A3
:10169000CC50C4235B00E550C6235B00E550002E10
:1016A0000AD16B1C0235AD00636000202F5103B0DE
:1016B0000CBC90469946F0BDAB00E3188822484622
:1016C0009850C4204000221810680121A940084306
:1016D00010608422520040469850022EE1D1C6226A
:1016E0005200A318186801431960DAE71C1C4D3436
:1016F000FF345C51B5E7C046001800080000000048
:1017000000000000000000000102030406070809B1
:1017100000000000010203040000000000000000BF
:101720006D61696E00168311040438080C101418DA
:10173000001C1D001E200000000000000000000032
:1017400069646C65000000000000000000000000FB
:101750000800024004000240000009001C00024092
:101760000400024004010A0030000240040002406C
:1017700008020A0044000240040002400C030B006F
:10178000580002400400024010040B00000000005A
:101790000000000000000000E1140008D11400085F
:1017A00031140008000000000000000000000000EC
:1017B0000D546F72636820204148423D2575000D2D
:1017C0004167610000000000000000000000000010
:1017D000002A030000640300000000000000000075
:1017E000002A0300000003000000000000000000C9
:1017F00043000000000000000000000000000000A6
:0418000000080020BC
:04180400F8B5C0462D
:1018080000000000EC0A0020540B0020BC0B002054
:1018180000000000000000000000000000000000C0
:1018280000000000000000000000000000000000B0
:1018380000000000F0170008000000000000000091
:101848000000000000000000000000000000000090
:101858000000000000000000000000000000000080
:101868000000000000000000000000000000000070
:101878000000000000000000000000000000000060
:101888000000000000000000000000000000000050
:101898000000000000000000000000000000000040
:1018A800000000000000000001000000000000002F
:1018B8000E33CDAB34126DE6ECDE05000B000000F4
:1018C8000000000000000000000000000000000010
:1018D8000000000000000000000000000000000000
:1018E80000000000000000000000000000000000F0
:1018F80000000000000000000000000000000000E0
:0400000508000911D5
:00000001FF
